:020000040800F2
:100000000028002009090108290B01082B0B010811
:100010002F0B0108330B0108370B0108000000000B
:100020000000000000000000000000003B0B010881
:100030003D0B0108000000003F0B0108410B0108C7
:10004000230901082309010823090108C7DC000866
:1000500023090108230901082309010823090108CC
:1000600023090108230901082309010823090108BC
:1000700023090108230901082309010823090108AC
:10008000230901082309010823090108230901089C
:10009000230901082309010823090108230901088C
:1000A000230901082309010823090108230901087C
:1000B0002309010855C6000823090108230901087E
:1000C000230901082309010823090108230901085C
:1000D0002309010819CC0008230901082309010894
:1000E00023090108230901082309010800F002F887
:1000F00000F05EF80AA090E8000C82448344AAF164
:100100000107DA4501D100F053F8AFF2090EBAE861
:100110000F0013F0010F18BFFB1A43F0010318473B
:10012000E44601000447010010F8013B0A4413F0C3
:10013000030408BF10F8014B1D1108BF10F8015B44
:10014000641E05D010F8016B641E01F8016BF9D133
:10015000002D15D010F8014B03F00C030C2BA1EB74
:1001600004040ABF10F8013BA4EB8314A4EB03249E
:1001700005F1010314F8016B5B1E01F8016BF9D561
:10018000914238BF10F8013BD1D3704700230024BF
:1001900000250026103A28BF78C1FBD8520728BF97
:1001A00030C148BF0B6070471FB51FBD10B510BDF3
:1001B00010F03EFD1146FFF7F7FF0CF069F910F063
:1001C0005CFD03B4FFF7F2FF03BC10F061FD00001B
:1001D000002000BF04E02021FD4A1154411CC8B298
:1001E0007928F8DB704730B5C0EB001301EB43030F
:1001F000F84C23800AE012F8013BF54CF54D2D88B0
:100200006355F44B1B885B1CF24C23801378002B46
:10021000F1D130BDF04800780C2816D10520EF4907
:100220000870EF4908700020EE498870C870EE49E8
:10023000C8700120ED4908700020ED4908700120C8
:10024000EC490870EC49087042E0E34800780B285C
:1002500035D10020E1490870E1490870E149887012
:10026000C870E149C8700120E0490870E149087090
:10027000E1490870E148007828B10120E0490870A0
:100280000020DE490870DF48007840B10020DE49D8
:100290000870DE490870DE490870DA490870DD48E8
:1002A000007820F00200DB490870DB48007820F07D
:1002B0004000D94908700020D849087008E0C648B5
:1002C000007828B10120CB4908700320CA49087082
:1002D0000020C14908707047BF4800780C2805D13C
:1002E0000020BE490870BE49087008E0BA4800788E
:1002F0000E2804D0B8480078032800D000BF70470B
:10030000B54800780C2805D10020B4490870B449DC
:10031000087008E0B04800780E2804D0AE48007895
:10032000032800D000BF7047AB48007880B10020A0
:10033000AA490870AA490870AA498870C870AA49D1
:10034000C8700120A9490870AA490870AA49087014
:100350000020A1490870704770B5B14DB14E9E485C
:100360000078102803D09C4800780B2846D19A4882
:100370000078102829D1ACA2032101200EF000F84A
:10038000B1A2032102200DF0FBFFA54DA54E0024D4
:1003900003E0305D2855601CC4B2C82CF9DB002492
:1003A0000DE0295DB04A1278521E4FF4807303EBC2
:1003B0000222224490B20DF0FFF9601CC4B2C82C96
:1003C000EFDB41F270700DF0D7FA0020834908701E
:1003D0008349087083498870C87001208349087078
:1003E00084490870844908700020A0490870A04919
:1003F0000870A0490870A049087008E076480078A5
:1004000028B101207B49087003207B490870002037
:100410007149087070BD83486F4909780C291ED155
:1004200000216E4A11706E4A11706E4A9170D1703F
:1004300001216D4AD1706F4A11706F4A117000210D
:100440008A4A11708A4A11708A4A11708A4A117058
:100450008A49097821F00801884A11703EE25E4914
:1004600009780E2970D18449097831B101291BD04E
:10047000022941D0032968D168E07E490978491CE6
:10048000C9B27C4A1170117011460978182902DD31
:100490000021117004E00121564A1170564A117072
:1004A0000021734A11702EE172490978042202EB8F
:1004B000C101415C491CCAB26E490978042303EBAF
:1004C000C10142546B49097800EBC10109796329E4
:1004D0000CDD63226749097803EBC1014254012115
:1004E000444A11700321444A117004E00121414A39
:1004F0001170414A117006E15E490978052202EB4C
:10050000C101415C491CCAB25A490978052303EB71
:10051000C10142545749097800EBC10149793B298F
:100520000CDD3B225349097803EBC1014254012100
:10053000304A11700321304A117004E001212D4A24
:1005400011702D4A1170DEE0DEE09BE04949097828
:10055000062202EBC101425C494991F85B108A42D4
:100560000EDA474991F8592042490978062303EBEE
:10057000C101425401211F4A11701F4A117025E028
:100580003C490978062202EBC101415C491CCAB210
:1005900038490978062303EBC101425435490978EB
:1005A00000EBC1018A79364991F85A108A420DDD73
:1005B000334991F85A202F49097803EBC10142547D
:1005C00001210C4A117003210B4A11709BE00000BD
:1005D0002021002088130020901400208113002087
:1005E0008213002083130020D819002078130020E4
:1005F000470000204600002045000020DA140020BB
:1006000099130020F4130020F9130020F8130020A0
:10061000F71300205B0000205A000020F613002092
:100620003C180020041900202020202020CAFDBEF4
:10063000DDD5FDD4DAB1A3B4E62C20202020202083
:1006400020202020202000002020202020202020EA
:10065000202020C7EBC9D4BAF22E2E2E2020202035
:100660002020202020200000981300207A13002052
:100670007B130020490000204F0000205300002081
:10068000E3190020FB490978022202EBC101425C18
:10069000F94991F872108A420EDAF74991F87220FE
:1006A000F4490978022303EBC10142540121F34AC2
:1006B0001170F34A117025E0EE490978022202EB2D
:1006C000C101415C491CCAB2EA490978022303EB23
:1006D000C1014254E749097800EBC1018978E64A33
:1006E00092F8702091420DDDE34991F87020E149C4
:1006F000097803EBC10142540121E04A1170032142
:10070000DF4A117000BFA9E6DE49097803296FD1DD
:10071000DD49097831B101291CD0022948D00329CB
:1007200067D175E0D349097800290CDDD1490978F2
:10073000491EC9B2CF4A117011700121CF4A117000
:10074000CF4A117002E01821CA4A11700021CF4A25
:100750001170C3E0C749097800EBC101097900298C
:1007600018DDC4490978042202EBC101415C491E2D
:10077000CAB2C0490978042303EBC1014254BD4900
:10078000097803EBC10142540121BC4A1170BC4AF3
:1007900011700CE00022B7490978042303EBC10172
:1007A00042540121B54A11700321B54A117095E0F8
:1007B000B049097800EBC101497900291ADDAD493A
:1007C0000978052202EBC101415C491ECAB2A94960
:1007D0000978052303EBC1014254A649097803EBCC
:1007E000C10142540121A54A1170A54A11700EE0C1
:1007F00075E040E000229F490978052303EBC10121
:10080000425401219D4A117003219D4A117065E0F7
:100810009849097800EBC1018A79974991F85B10F2
:100820008A4218DD93490978062202EBC101415C36
:10083000491ECAB28F490978062303EBC10142540D
:100840008C49097803EBC101425401218B4A117094
:100850008B4A11700EE0884991F859208549097832
:10086000062303EBC10142540121844A1170032184
:10087000834A117032E07F49097800EBC1018A7820
:100880007D4991F872108A4218DD7A49097802226E
:1008900002EBC101415C491ECAB2764909780223C4
:1008A00003EBC10142547349097803EBC10142547F
:1008B0000121724A1170724A11700EE06E4991F86E
:1008C00072206C490978022303EBC10142540121D3
:1008D0006A4A117003216A4A117000BF37E36949FF
:1008E0000978072913D10621694A1170694A1170E4
:1008F0000121694A91700021D170684AD1700121AB
:10090000674A11705D4A11705D4A11701FE35D49BD
:1009100009780F2915D101215F4A51705A49097888
:10092000491CC9B2584A117011701146097805293D
:1009300001DB002111700121504A1170504A1170E1
:1009400005E3504909780A2959D156490978C90956
:10095000A9BB54490978C1F3400191B952490978BA
:10096000C1F3C00169B94F49097821F00201891C1E
:100970004C4A117058223F49097800EBC101CA70F6
:1009800030E048490978C1F34001C9B146490978C6
:10099000C1F3C001A1B94349097821F00201414ADC
:1009A00011704149097821F0080108313E4A11705F
:1009B0004A223049097800EBC101CA7012E017E001
:1009C0003849097821F00201364A11703649097810
:1009D00021F00801344A117000222649097800EB01
:1009E000C101CA700121254A1170254A1170AEE279
:1009F0000121224A11700321214A1170A7E22149E5
:100A00000978042959D127490978C90989BB254999
:100A10000978C1F3801161BB224909788908C9436B
:100A2000204A127861F382021E490A700978C1F3E4
:100A3000800161B10F49097800EBC101497841F0AB
:100A400001020C49097800EBC1014A700BE0094929
:100A5000097800EBC101497801F00E0205490978D7
:100A600000EBC1014A700121044A1170044A11705F
:100A70006DE21BE049000020E31900204600002041
:100A800045000020901400204F0000207B13002020
:100A9000811300208213002083130020D819002026
:100AA0007813002055000020530000200121FE4A49
:100AB00011700321FD4A117049E2FD4909780829A6
:100AC0003DD1FC490978C90989BBFA490978C1F3C4
:100AD000801161BBF7490978C908C943F54A127802
:100AE00061F3C302F3490A700978C1F3C00161B12F
:100AF000F149097800EBC101497841F00202EE4961
:100B0000097800EBC1014A700BE0EB49097800EB72
:100B1000C101497801F00D02E749097800EBC101F4
:100B20004A700121E04A1170E04A11700FE2FFE7BC
:100B30000121DD4A11700321DC4A117007E2DC4912
:100B400009780D293DD1DB490978C90989BBD94903
:100B50000978C1F3801161BBD64909780909C943F5
:100B6000D44A127861F30412D2490A700978C1F3A9
:100B7000001161B1D049097800EBC101497841F019
:100B80000402CD49097800EBC1014A700BE0CA4963
:100B9000097800EBC101497801F00B02C6490978D8
:100BA00000EBC1014A700121BF4A1170BF4A1170A8
:100BB000CDE1FFE70121BC4A11700321BB4A11704E
:100BC000C5E1BB490978012952D1BA490978C90957
:100BD00081BBB8490978C1F3801159BBB74909787D
:100BE00051B90121B54A1170B249097821F02001AB
:100BF0002031B04A117027E0B049097801290AD1A3
:100C00000221AE4A1170AB49097821F02001203150
:100C1000A84A117018E0A949097802290BD10321CB
:100C2000A64A1170A349097821F020012031A14A78
:100C3000117009E015E00021A04A11709D49097862
:100C400021F020019B4A11709C490A789A49097841
:100C500000EBC101CA710121934A1170934A1170CE
:100C600075E10121904A11700321904A11706EE1E3
:100C70008F490978052969D18E490978C909E9BBE5
:100C80008C4909788909C9438A4A127861F3861226
:100C900088490A700978C1F3801161B186490978E1
:100CA00000EBC101497841F008028349097800EB63
:100CB000C1014A700BE08049097800EBC101497815
:100CC00001F007027C49097800EBC1014A707949BB
:100CD0000978C1F3801161B37649097821F00401E4
:100CE000744A11701146097821F0080111701146FB
:100CF000097821F010011170002100E01FE06F4A17
:100D000011706C49097821F020016A4A11700022A3
:100D10006949097800EBC101CA716749097800EB9C
:100D2000C101497801F008026349097800EBC1016B
:100D30004A7001215C4A11705C4A117007E101217F
:100D4000594A11700321594A117000E15849097834
:100D500009297DD15A490978E9BB0121584A117006
:100D60005449097821F080018031524A11701146AE
:100D7000097821F0020111705249097821F0080127
:100D8000504A11704B49097821F00401494A117009
:100D90001146097821F0080111701146097821F0F7
:100DA000100111700021454A11704249097821F063
:100DB0002001404A117000223F49097800EBC1012F
:100DC000CA713C49097821F040013A4A11705A220F
:100DD0003949097800E009E000EBC101CA7000223E
:100DE0003549097800EBC1014A70A1E0344909781E
:100DF000012948D10221324A11702E49097821F087
:100E0000800180312B4A11701146097821F00201CE
:100E100011702C49097821F008012A4A11702549DE
:100E2000097821F00401234A11701146097821F054
:100E3000080111701146097821F01001117000218C
:100E40001E4A11701B49097821F02001194A00E05F
:100E500074E0117000221849097800EBC101CA71D1
:100E60001449097821F04001124A117047221249B1
:100E7000097800EBC101CA7000220F49097800EB24
:100E8000C1014A7054E000210D4A117009490978E6
:100E900021F08001074A11701146097821F0020102
:100EA0001170084909780FE0460000204500002035
:100EB0009014002055000020490000201A00002056
:100EC0001B0000205300002021F00801FE4A117091
:100ED000FE49097821F00401FC4A11701146097895
:100EE00021F0080111701146097821F010011170EC
:100EF0000021F74A1170F549097821F02001F34AE1
:100F000011700022F349097800EBC101CA71EF4961
:100F1000097821F04001ED4A11700022ED4909786D
:100F200000EBC101CA70EB49097800EBC1014A70BE
:100F30000121E94A1170E94A117008E0E84909788D
:100F400029B10121E44A11700321E44A117070476C
:100F5000E4490878E24909780C2926D1E249097860
:100F6000C1F3401129B90021E04A1170E04A117023
:100F700009E0DD490978C1F3401121B10A21DB4ABA
:100F80001170DB4A11700021DA4A9170D170012191
:100F9000D94AD1700021D94A1170D94A1170012162
:100FA000CD4A1170CD4A117033E0CD4909780E2930
:100FB00019D148B1CF49C978491ECE4AD170012113
:100FC000C54A1170C54A1170CA49CA78411E8A4281
:100FD00002DCC849C97811B90021C64AD170002184
:100FE000BF4A117015E0BE490978032911D180B1BB
:100FF000C049C978491CBF4AD1700121B64A117055
:10100000B64A1170BB49CA78411E8A4201DDB94A0D
:10101000D1700021B24A11707047B14800780C2895
:1010200010D10320B1490870B14908700120B149BD
:10103000887008460079C8700120A7490870A74940
:10104000087008E0A648007828B10120A24908707D
:101050000320A24908700020A1490870704770B5AC
:101060009F4800780C2817D1A248407818B100207A
:10107000A04948700AE003209C4908709C49087008
:1010800001209C49887008460079C8700120924967
:10109000087092490870D0E0914800780E2840D13D
:1010A0009448407830B39348C07802281BDC9148BC
:1010B000C1789448405C63280ADA8E48C178914828
:1010C000405C401CC0B28B49CA788E49885400E00D
:1010D00063208849CA788B49885401207E4908706A
:1010E0007E490870A9E001207B49087003207B49F4
:1010F0000870A2E07F48C078401E7E49C87008464C
:10110000C0787E490978884202DC7A48C07810B9F4
:1011100000207849C87001206F4908706F49087035
:101120008BE06F480078032845D17248407868B357
:101130007048C07838B16F48C078012803D06D4836
:10114000C07802281BD16B48C1786E48405C0028EB
:101150000ADD6848C1786B48405C401EC0B26549F2
:10116000CA786849885400E000206249CA78654915
:101170008854012058490870584908705DE00120E2
:101180005549087003205549087056E05948C07801
:10119000401C5849C8700846C078584909788842A8
:1011A00003DD564800785349C87001204A49087049
:1011B0004A49087041E04A480078072834D14D4830
:1011C000007870B14B48407858B94A48C078022836
:1011D00007DC0120474948703F4908703F490870C3
:1011E0002BE044480078C0B142484078A8B1454D52
:1011F000002040494870002407E015F8011B04F165
:1012000070000CF0D9FA601CC4B2032CF5DB01208D
:1012100031490870314908700FE001202E490870EB
:1012200003202E49087008E02D48007828B10120DD
:1012300029490870032029490870002028490870AE
:1012400070BD70B5264800780C2817D12948407821
:1012500018B10020274948700AE00320234908708C
:101260002349087001202349887008460079C87016
:101270000120194908701949087002E218480078DD
:101280000E286ED11B48407800286BD01948C078D2
:1012900038B11848C078012803D01648C078022811
:1012A0003FD11448C17817480838405C0F282DDA20
:1012B0001048C17813480838405C401CC0B20D4942
:1012C000CA78104908391FE053000020550000205B
:1012D0001A000020490000204600002045000020A0
:1012E000901400208A130020570000208113002052
:1012F0008213002083130020D81900207C130020C3
:101300007F130020531A0020885400E00F20F94971
:10131000CA78F94988540120F8490870F8490870DA
:10132000AFE1F448C07803281DD1F248C178F248F3
:10133000405C14280ADAEF48C178EF48405C401C52
:10134000C0B2EC49CA78EC49885400E01420E9495D
:10135000CA78E94988540120E8490870E8490870CA
:101360008FE17EE066E0E348C07804281BD1E148C5
:10137000C178E148405C5A280ADADE48C178DE4884
:10138000405C401CC0B2DB49CA78DB49885400E0AD
:101390005A20D849CA78D84988540120D7490870BA
:1013A000D74908706DE1D348C07805281BD1D148D2
:1013B000C178D148405C96280ADACE48C178CE4838
:1013C000405C401CC0B2CB49CA78CB49885400E08D
:1013D0009620C849CA78C84988540120C74908706E
:1013E000C74908704DE1C348C07806281BD1C148E1
:1013F000C178C148405C08280ADABE48C178BE48B6
:10140000405C401CC0B2BB49CA78BB49885400E06C
:101410000820B849CA78B84988540120B7490870EB
:10142000B74908702DE10120B44908700320B44980
:10143000087026E1AF48C078401EAE49C870084623
:10144000C078B0490978884202DCAA48C07810B94F
:101450000020A849C8700120A8490870A849087050
:101460000FE1A948007803287ED1A24840780028DF
:101470007BD0A048C07838B19E48C078012803D0FE
:101480009C48C07802281BD19A48C1789A48405C91
:101490000A280ADD9748C1789748405C401EC0B2D0
:1014A0009449CA789449885400E00A209149CA783E
:1014B0009149885401209149087091490870E0E0F1
:1014C0008C48C07803281BD18A48C1788A48405C80
:1014D0000F280ADD8748C1788748405C401EC0B2AB
:1014E0008449CA788449885400E00F208149CA7829
:1014F0008149885401208149087081490870C0E001
:101500007C48C07804281BD17A48C1787A48405C6E
:101510001E280ADD7748C1787748405C401EC0B27B
:101520007449CA787449885400E01E207149CA7809
:101530007149885401207149087071490870A0E010
:101540006C48C07805281ED16A48C1786A48405C5A
:101550005A280DDD6748C1786748405C401EC0B21C
:101560006449CA78644901E049E033E0885400E006
:101570005A206049CA786049885401205F49087040
:101580005F4908707DE05B48C07806281BD1594848
:10159000C1785948405C04280ADD5648C17856484D
:1015A000405C401EC0B25349CA785349885400E099
:1015B00004205049CA785049885401204F49087086
:1015C0004F4908705DE001204C49087003204C49E8
:1015D000087056E04748C078401C4649C870084625
:1015E000C07848490978884203DD46480078414977
:1015F000C8700120414908704149087041E04248E3
:101600000078072834D13B48007870B139484078D9
:1016100058B93848C078062807DC01203549487099
:1016200036490870364908702BE032480078C0B15E
:1016300030484078A8B1304D00202E494870002431
:1016400007E015F8011B04F168000CF0B5F8601C08
:10165000C4B2082CF5DB012028490870284908701D
:101660000FE001202549087003202549087008E093
:101670002548007828B1012020490870032020491E
:10168000087000202049087070BD70B51E480078B1
:101690000C2810D103201D4908701D490870012035
:1016A0001449887008460079C870012013490870F1
:1016B000134908704CE1144800780E2873D10D4886
:1016C0004078002870D00B48C07870BB0948C178BA
:1016D00009480838405C03281CDA0648C1780648E7
:1016E0000838405C401CC0B20249CA780249083937
:1016F000885410E0831300204B1A0020460000207D
:10170000450000207C13002090140020811300204D
:10171000821300200320FA49CA78FA49885401202C
:10172000F9490870F949087012E1FFE7F448C078F8
:10173000012803D0F248C07802281BD1F048C178B4
:10174000F048405CF0280ADAED48C178ED48405C8A
:10175000401CC0B2EA49CA78EA49885400E0F02047
:10176000E749CA78E74988540120E7490870E74902
:101770000870EDE0E248C078032803D0E048C07864
:1017800004281DD1DE48C178DE48405C96280CDA7A
:10179000DB48C178DB48405C401CC0B2D849CA78FD
:1017A000D849885402E029E011E09620D449CA784B
:1017B000D44988540120D4490870D4490870C7E03E
:1017C0000120D14908700320D0490870C0E0CC48FE
:1017D000C078401ECA49C8700846C078CC4909780C
:1017E000884202DCC648C07810B90020C449C870DD
:1017F0000120C5490870C5490870A9E0C5480078AE
:10180000032863D1BE48407800284AD0BC48C0783D
:1018100002281BDCBA48C178BA48405C01280ADDBE
:10182000B748C178B748405C401EC0B2B449CA78D6
:10183000B449885400E00120B149CA78B1498854BC
:101840000120B1490870B149087081E0AC48C07806
:10185000032803D0AA48C07804281BD1A848C1781F
:10186000A848405C5A280ADDA548C178A548405CD4
:10187000401EC0B2A249CA78A249885400E05A204A
:101880009F49CA789F49885401209F4908709F4901
:1018900008705DE001209C49087003209B49087096
:1018A00056E09748C078401C9549C8700846C078F3
:1018B00097490978884203DD954800789049C870B7
:1018C0000120914908709149087041E091480078E1
:1018D000072834D18A48007870B18948407858B9CF
:1018E0008748C078042807DC01208549487086496C
:1018F0000870864908702BE081480078C0B18048A4
:101900004078A8B17F4D00207D494870002407E051
:1019100015F8011B04F160000BF04EFF601CC4B20F
:10192000082CF5DB012078490870784908700FE031
:1019300001207549087003207449087008E0754853
:10194000007828B101207049087003206F490870A1
:1019500000207049087070BD70B56E4800780C2882
:1019600017D16748407818B10020654948700AE0EF
:10197000032069490870694908700120604988702E
:1019800008460079C87001205F4908705F490870F7
:10199000B2E0604800780E2834D159484078D0B180
:1019A0005748C17857480838405C63280CDA5448D7
:1019B000C17854480838405C401CC0B25049CA78CD
:1019C00050490839885400E063204D49CA784D4990
:1019D0000839885410E04A48C078401E4849C87009
:1019E0000846C0784A490978884202DC4448C078F1
:1019F00010B900204249C87001204349087043498A
:101A0000087079E043480078032832D13C48407898
:101A1000D0B13B48C1783B480838405C00280CDD19
:101A20003748C17837480838405C401EC0B2344956
:101A3000CA7834490839885400E000203049CA780F
:101A40003049083988540EE02D48C078401C2C4994
:101A5000C8700846C0782E490978884203DD2C48B2
:101A600000782749C8700120274908702749087065
:101A700042E028480078072835D12148007870B125
:101A80001F48407858B91E48C078032807DC012059
:101A90001B4948701C4908701C4908702CE0184804
:101AA0000078C8B116484078B0B1164D083D002006
:101AB00013494870002407E015F8011B04F1580091
:101AC0000BF07AFE601CC4B2042CF5DB01200E4939
:101AD00008700E4908700FE001200B4908700320C0
:101AE0000A49087008E00B48007828B1012006492F
:101AF000087003200549087000200649087070BD71
:101B000083130020431A00204600002045000020D7
:101B10007C130020901400208113002082130020E9
:101B200070B5F64800780C2817D1F548407818B100
:101B30000020F34948700AE00320F2490870F24996
:101B400008700120EE49887008460079C8700120AD
:101B5000EE490870EE490870E5E0E84800780E2884
:101B60006CD1E7484078002851D0E548C07838B1BA
:101B7000E348C078022803D0E148C07804281BD18C
:101B8000DF48C178E348405C63280ADADC48C17862
:101B9000E048405C401CC0B2D949CA78DD4988544D
:101BA00000E06320D649CA78DA4988540120D74931
:101BB0000870D7490870B6E0D148C078012803D032
:101BC000CF48C07803281BD1CD48C178D148405CAC
:101BD00078280ADACA48C178CE48405C401CC0B2B6
:101BE000C749CA78CB49885400E07820C449CA78EC
:101BF000C84988540120C5490870C549087092E059
:101C00000120C24908700320C14908708BE0BC481C
:101C1000C078401EBA49C8700846C078BE490978E5
:101C2000884202DCB648C07810B90020B449C870B8
:101C30000120B6490870B649087074E0AF480078D2
:101C400003282ED1AE484078B0B1AD48C178B14834
:101C5000405C01280ADDAA48C178AE48405C401EBD
:101C6000C0B2A749CA78AB49885400E00120A44912
:101C7000CA78A84988540EE0A148C078401CA04901
:101C8000C8700846C078A4490978884203DDA24894
:101C900000789B49C87001209C4908709C490870D5
:101CA00041E096480078072834D19548007870B113
:101CB0009348407858B99248C078042807DC01203E
:101CC0008F49487091490870914908702BE08C4801
:101CD0000078C0B18A484078A8B18E4D002088496C
:101CE0004870002407E015F8011B04F150000BF0C8
:101CF00063FD601CC4B2052CF5DB0120834908702C
:101D0000834908700FE00120804908700320804952
:101D1000087008E07948007828B101207B490870F4
:101D200003207B49087000207449087070BD70B5AD
:101D3000724800780C2817D17148407818B10020FB
:101D40006F4948700AE003206E4908706E490870B8
:101D500001206B49887008460079C87001206B49E2
:101D600008706B49087030E1644800780E2872D121
:101D700063484078002877D06148C078022803D0B3
:101D80005F48C07803281FD15D48C1786148083892
:101D9000405C78280CDA5A48C1785E480838405CC4
:101DA000401CC0B25649CA785A490839885400E0E4
:101DB00078205349CA785749083988540120534933
:101DC00008705349087000E14D48C078F8B94C4894
:101DD000C17850480838405C96280CDA4848C178E9
:101DE0004C480838405C401CC0B24549CA78494953
:101DF0000839885400E096204149CA784549083995
:101E0000885401204149087041490870DDE03C4890
:101E1000C078012821D13A48C1783E480838405C52
:101E2000F0280CDA3648C1783A480838405C401C43
:101E3000C0B23349CA7837490839885400E0F020E5
:101E40002F49CA7833490839885401202F4908702E
:101E50002F490870B9E01EE006E001202B49087008
:101E600003202B490870B0E02548C078401E244963
:101E7000C8700846C07828490978884202DC2048A2
:101E8000C07810B900201E49C87001201F49087091
:101E90001F49087099E019480078032853D1184861
:101EA000407850B31648C07803281FDC1448C17826
:101EB00018480838405C01280CDD1148C1781548E5
:101EC0000838405C401EC0B20D49CA781149083933
:101ED000885400E001200A49CA780E49083988541C
:101EE00001200A4908700A4908706EE0012007497C
:101EF000087003200649087067E00FE09014002086
:101F0000831300208113002082130020460000204C
:101F100045000020331A00207C130020F848C078C8
:101F2000401CF749C8700846C078F64909788842CD
:101F300003DDF4480078F249C8700120F2490870C6
:101F4000F249087041E0F2480078072834D1EC48A3
:101F5000007870B1EA48407858B9E948C078032859
:101F600007DC0120E6494870E7490870E749087036
:101F70002BE0E3480078C0B1E1484078A8B1E54DD6
:101F80000020DF494870002407E015F8011B04F128
:101F900048000BF011FC601CC4B2082CF5DB0120DA
:101FA000D9490870D94908700FE00120D649087056
:101FB0000320D649087008E0D548007828B10120F0
:101FC000D14908700320D14908700020D049087019
:101FD00070BD70B5CE4800780C2817D1C84840783D
:101FE00018B10020C64948700AE00320CA490870A9
:101FF000CA4908700120C249887008460079C87033
:102000000120C1490870C149087092E1C0480078B8
:102010000E2872D1BA48407800286FD0B848C078EE
:10202000F8B9B748C178BB480838405C63280CDA77
:10203000B348C178B7480838405C401CC0B2B049CA
:10204000CA78B4490839885400E06320AC49CA789A
:10205000B049083988540120AB490870AB49087071
:1020600067E1A748C078022803D0A548C0780328B4
:102070001FD1A348C178A7480838405C78280CDAFB
:102080009F48C178A3480838405C401CC0B29C49B6
:10209000CA78A0490839885400E078209849CA785D
:1020A0009C4908398854012097490870974908705D
:1020B0003FE19348C078042821D19148C1789548E0
:1020C0000838405CF0280CDA8D48C178914808380F
:1020D000405C401CC0B28A49CA788E49083988548D
:1020E00000E0F0208649CA788A49083988540120DE
:1020F00085490870854908701BE146E02EE080485C
:10210000C078052803D07E48C07806281FD17C48B7
:10211000C17880480838405C1E280CDA7848C178BD
:102120007C480838405C401CC0B27549CA7879497F
:102130000839885400E01E207149CA787549083969
:10214000885401207049087070490870F1E001203E
:102150006D49087003206D490870EAE06848C0784E
:10216000401E6749C8700846C078664909788842A9
:1021700002DC6348C07810B900206149C8700120B2
:102180006149087061490870D3E06148007803280C
:1021900077D15B48407800285DD05948C07858B165
:1021A0005748C078042807D05548C078052803D080
:1021B0005348C07806281FD15148C178554808387F
:1021C000405C01280CDD4E48C17852480838405C1C
:1021D000401EC0B24A49CA784E490839885400E0C6
:1021E00001204749CA784B4908398854012046499B
:1021F0000870464908709CE04148C078022803D026
:102200003F48C07803281FD13D48C178414808386D
:10221000405C00280CDD3A48C1783E480838405CF4
:10222000401EC0B23649CA783A490839885400E09D
:1022300000203349CA783749083988540120324987
:1022400008703249087074E001202F49087003209B
:102250002E4908706DE02A48C078401C2849C87093
:102260000846C07827490978884203DD2548007868
:102270002349C8700120244908702449087058E097
:10228000FFE72348007807284AD11D48007890B11D
:102290001B48407878B91A48C07806280BDC1848E3
:1022A000C078012807D001201549487016490870E8
:1022B000164908703DE012480078C8B110484078CF
:1022C000B0B1144D083D00200D494870002407E0CE
:1022D00015F8011B04F140000BF06EFA601CC4B24B
:1022E000082CF5DB0120084908700849087020E037
:1022F00001200549087003200449087019E0000016
:10230000831300207C13002046000020450000209D
:10231000901400202B1A002081130020821300202B
:10232000FC48007828B10120FB4908700320FB49D4
:1023300008700020F749087070BD70B5F548007846
:102340000C2817D1F648407818B10020F44948709D
:102350000AE00320F3490870F34908700120F049AE
:10236000887008460079C8700120EB490870EB4975
:102370000870F4E0E74800780E2864D1E848407817
:10238000002849D0E648C078D8B9E548C178E74880
:10239000405C63280ADAE248C178E448405C401CAB
:1023A000C0B2DF49CA78E149885400E06320DC49C3
:1023B000CA78DE4988540120D7490870D749087087
:1023C000CDE0D748C078012803D0D548C07802288E
:1023D0001BD1D348C178D548405C78280ADAD04868
:1023E000C178D248405C401CC0B2CD49CA78CF49C0
:1023F000885400E07820CA49CA78CC498854012022
:10240000C5490870C5490870A9E00120C249087093
:102410000320C2490870A2E0C148C078401EC049EC
:10242000C8700846C078C2490978884202DCBC48B6
:10243000C07810B90020BA49C8700120B6490870A8
:10244000B64908708BE0B3480078032845D1B448FA
:10245000407868B3B248C07838B1B148C078012834
:1024600003D0AF48C07802281BD1AD48C178AF482F
:10247000405C01280ADDAA48C178AC48405C401E97
:10248000C0B2A749CA78A949885400E00120A449EC
:10249000CA78A649885401209F4908709F4908704E
:1024A0005DE001209C49087003209C49087056E0BB
:1024B0009B48C078401C9A49C8700846C0789C491F
:1024C0000978884203DD9A4800789549C870012050
:1024D000914908709149087041E08E4800780728BA
:1024E00034D18F48007870B18D48407858B98C4805
:1024F000C078022807DC01208949487086490870A5
:10250000864908702BE086480078C0B1844840783E
:10251000A8B1864D002082494870002407E015F8D4
:10252000011B04F138000BF047F9601CC4B2032C06
:10253000F5DB012078490870784908700FE0012028
:102540007549087003207549087008E071480078E3
:1025500028B10120704908700320704908700020DC
:102560006C49087070BD10B56A4800780C2817D106
:102570006B48407818B10020694948700AE0032090
:1025800068490870684908700120654988700846E4
:102590000079C87001206049087060490870D9E06E
:1025A0005C4800780E2840D15D48407830B35C48E4
:1025B000C07801281BD15D48383890F83100F028E8
:1025C0000ADA5A48383890F83100401CC0B25749EE
:1025D000383981F8310000E0F0205449383981F869
:1025E000310001204C4908704C490870B2E00120CC
:1025F00049490870032049490870ABE04848C07851
:10260000401E4749C8700846C07849490978884241
:1026100002DC4348C07810B900204149C87001204D
:102620003D4908703D49087094E03A480078032815
:102630003ED13B48407830B33948C07801281BD19F
:102640003A48383890F8310001280ADD37483838E0
:1026500090F83100401EC0B23449383981F8310059
:1026600000E001203149383981F8310001202A4940
:1026700008702A4908706DE001202749087003207E
:102680002649087066E02648C078401C2449C87076
:102690000846C07826490978884203DD2448007836
:1026A0001F49C87001201C4908701C49087051E07E
:1026B00018480078072844D119480078A0B1184874
:1026C000407888B91648C078012806D11449487066
:1026D00011490870114908703CE001200E4908704A
:1026E00003200E49087035E00D48007810B30C48FF
:1026F0004078F8B100200A4948700C48383890F802
:10270000311031200BF058F80120034908700349BB
:1027100008701FE0901400204600002045000020B3
:102720008313002081130020821300201B1A002035
:102730007C1300200120FE4908700320FD49087029
:1027400008E0FD48007828B10120F949087003200D
:10275000F84908700020F849087010BD70B5F648B7
:1027600000780C2817D1F548407818B10020F349BB
:1027700048700AE00320F2490870F249087001200D
:10278000EE49887008460079C8700120E849087051
:10279000E8490870ECE0E84800780E2863D1E74883
:1027A0004078002848D0E548C078F8B1E348C078C0
:1027B00006281BDCE148C178E348405C63280ADA5C
:1027C000DE48C178E048405C401CC0B2DB49CA78B2
:1027D000DD49885400E06320D849CA78DA49885432
:1027E0000120D3490870D3490870C1E0D348C078AC
:1027F000D8B9D248C178D448405C32280ADACF48E8
:10280000C178D148405C401CC0B2CC49CA78CE499E
:10281000885400E03220C949CA78CB498854012045
:10282000C3490870C3490870A2E00120C04908707C
:102830000320C04908709BE0C048C078401EBF49D3
:10284000C8700846C078C1490978884202DCBB4894
:10285000C07810B90020B949C8700120B449087087
:10286000B449087084E0B448007803283ED1B348E6
:10287000407830B3B148C07806281BDCAF48C17837
:10288000B148405C00280ADDAC48C178AE48405CE5
:10289000401EC0B2A949CA78AB49885400E0002064
:1028A000A649CA78A84988540120A1490870A149BD
:1028B00008705DE001209E49087003209D49087062
:1028C00056E09E48C078401C9C49C8700846C078B5
:1028D0009E490978884203DD9C4800789749C87072
:1028E0000120934908709349087041E092480078AC
:1028F000072834D19148007870B19048407858B991
:102900008E48C078062807DC01208C494870884929
:102910000870884908702BE088480078C0B1874863
:102920004078A8B1884D002084494870002407E011
:1029300015F8011B04F128000AF03EFF601CC4B228
:10294000082CF5DB01207A4908707A4908700FE0FD
:1029500001207749087003207649087008E076481E
:10296000007828B10120724908700320714908706D
:1029700000207149087070BD6F4800780C2810D194
:1029800003206F4908706F49087001206B498870F7
:1029900008460079C87001206549087065490870CB
:1029A0003CE0654800780E2816D16448C078401E87
:1029B0006249C8700846C07864490978884202DCD8
:1029C0005E48C07810B900205C49C87001205849A1
:1029D00008705849087021E057480078032814D13E
:1029E0005648C078401C5549C8700846C0785749B9
:1029F0000978884203DD554800785049C8700120A5
:102A00004B4908704B49087008E04B48007828B1E2
:102A100001204749087003204649087000204649B4
:102A200008707047444800780C2810D103204449AE
:102A300008704449087001204049887008460079B0
:102A4000C87001203A4908703A4908703CE03A4899
:102A500000780E2816D13948C078401E3749C87012
:102A60000846C07839490978884202DC3348C07882
:102A700010B900203149C87001202D4908702D4936
:102A8000087021E02C480078032814D12B48C07826
:102A9000401C2A49C8700846C0782C4909788842E9
:102AA00003DD2A4800782549C870012020490870B4
:102AB0002049087008E02048007828B101201C490E
:102AC000087003201B49087000201B4908707047DC
:102AD00070B5194800780C2817D11848407818B1FB
:102AE0000020164948700AE003201549087015496E
:102AF000087001201149887008460079C8700120CB
:102B00000B4908700B49087048E10B4800780E2803
:102B10007CD10A484078002879D00848C07800283D
:102B200079D00648C078012820D1074828380FE01E
:102B30004600002045000020901400208313002050
:102B400081130020821300200B1A00207C13002028
:102B5000407C1E2806DAFA48407C401CC0B2F84986
:102B6000487400E01E20F649487454E0F548C078E7
:102B700002280ED1F248807C632806DAF048807C77
:102B8000401CC0B2EE49887400E06320EC498874B0
:102B900041E0EC48C07803281BD1EA48C178E848F6
:102BA0001030405C03280DDAE648C178E448103064
:102BB000405C401CC1B2E348C278E1481030815407
:102BC000084600E00320DF49CA78DD491031885407
:102BD00021E0DC48C078042809D1D948007D6E285E
:102BE00001D1792100E06E21D548017513E0D54867
:102BF000C07805280FD1D248407D1E2808DAD04879
:102C0000407D401CC0B2CE49487502E020E008E09B
:102C10001E20CB4948750120CB490870CB4908706C
:102C200010E0C848C078401EC649C8700846C07841
:102C3000C7490978884202DCC248C07810B9002030
:102C4000C049C8700120C0490870C0490870A5E09B
:102C5000C0480078032854D1BA484078B8B3B9487E
:102C6000C07848B3B748C07802280BD0B548C078C0
:102C7000032807D0B348C078012803D0B148C078F2
:102C800005281AD1AF48C178AD481030405C002803
:102C90000CDDAC48C178AA481030405C401EC0B280
:102CA000A849CA78A6491031885400E00020A549F7
:102CB000CA78A349103188541DE0A248C07804287E
:102CC00019D19F48007D6E2802D1792101E003E0EF
:102CD0006E219B4801750EE09A48C078401C9949C6
:102CE000C8700846C0789A490978884203DD984838
:102CF00000789449C870012093490870934908707E
:102D00004CE09448007807283FD18E480078C0B145
:102D10008C484078A8B98B48C07803280ADC8948D9
:102D2000C07838B1012087494870874908708749C1
:102D3000087033E00120844908700320834908703B
:102D40002CE080480078C8B17E484078B0B17C4D16
:102D5000103500207B494870002407E015F8011B5E
:102D600004F110000AF028FD601CC4B2082CF5DB49
:102D7000012075490870754908700FE001207249FB
:102D8000087003207149087008E07248007828B183
:102D900001206D49087003206C49087000206D49BE
:102DA000087070BD70B56B4800780C2817D1654865
:102DB000407818B10020634948700AE00320664952
:102DC00008706649087001205E49887008460079DD
:102DD000C87001205C4908705C49087006E15D48D4
:102DE00000780E2854D15748407890B35548C078A1
:102DF00058B15448C078012807D05248C0780228FA
:102E000003D05048C07804280FD14E48C1784C48B0
:102E10000830405C6E2801D1792100E06E214948DC
:102E2000C2784748083081542CE04648C17844486D
:102E30000830405C03280DDA4248C1784048083029
:102E4000405C401CC0B23F49CA783D4908318854B3
:102E500001E006E003203B49CA783949083188542B
:102E600010E03848C078401E3649C8700846C0781F
:102E700037490978884202DC3248C07810B900200E
:102E80003049C87001203049087030490870ADE001
:102E900030480078032863D12A48407890B3294805
:102EA000C07858B12748C078012807D02548C07895
:102EB000022803D02348C07804280FD12148C178C4
:102EC0001F480830405C6E2801D1792100E06E2156
:102ED0001C48C2781A48083081542AE01948C17841
:102EE00017480830405C01280DDD1648C1781448A9
:102EF0000830405C401EC0B21249CA7810490831FF
:102F0000885401E006E001200E49CA780C490831D6
:102F100088540EE00B48C078401C0A49C870084627
:102F2000C0780B490978884203DD094800780549D3
:102F3000C8700120044908700449087056E00FE089
:102F4000E3190020831300204600002045000020E4
:102F50007C13002090140020811300208213002095
:102F6000F5480078072838D1F448007890B1F34844
:102F7000407878B9F148C07804280BD0EF48C07881
:102F8000052807D00120ED494870ED490870ED494A
:102F900008702BE0E9480078C0B1E8484078A8B153
:102FA000E94D0020E5494870002407E015F8011BB1
:102FB00004F108000AF000FC601CC4B2082CF5DB28
:102FC0000120DF490870DF4908700FE00120DC496B
:102FD00008700320DB49087008E0D748007828B162
:102FE0000120D74908700320D64908700020D24933
:102FF000087070BD70B5D04800780C2823D1CF4838
:10300000407868B10020CD494870002405E0CF48E1
:10301000005DCF490855601CC4B2062CF7DB09E0FF
:103020000320CC490870CC4908700120C34988703E
:103030000020C8700120C2490870C24908700020F1
:10304000C6490870E0E1BC4800780E2879D1BB4839
:103050004078D8B1B948C078032817D1BA480838A1
:10306000C078C82808DAB8480838C078401CC0B210
:10307000B5490839C87000E0C820B3490839C8709C
:103080000120AF490870AF490870BDE1AB484078F6
:1030900030B3AA48C078052822D1B0480078AC499E
:1030A000085C092809DAAD480078085C401CC0B209
:1030B000AA490978A64A505400E00020A749097897
:1030C000A34A5054A54800781146095CA3480278E9
:1030D000401D815401209A4908709A49087093E173
:1030E00096484078A8B19548C07858B19348C078C0
:1030F000012807D09148C078022803D08F48C078B3
:10310000042806D101208E49087003208D490870DB
:103110007AE18A48C078401E8849C8700846C0785D
:103120008F490978884202DC8448C07810B90020B1
:103130008249C8700120824908708249087063E1A1
:10314000FFE77D480078032877D17C484078D8B1E4
:103150007A48C078032817D17B480838C0780528FA
:1031600008DD79480838C078401EC0B27649083971
:10317000C87000E0052074490839C8700120704902
:103180000870704908703FE16C48407830B36B4874
:10319000C078052822D1714800786D49085C002864
:1031A00009DD6E480078085C401EC0B26B490978A2
:1031B000674A505400E0092068490978644A50542D
:1031C000664800781146095C64480278401D8154C5
:1031D00001205B4908705B49087015E15748407849
:1031E000A8B15648C07858B15448C078012807D0D3
:1031F0005248C078022803D05048C078042806D12D
:1032000001204F49087003204E490870FCE04B48EC
:10321000C078401C4949C8700846C07850490978B0
:10322000884203DD4E4800784449C8700120444973
:10323000087044490870E7E0FFE73F480078072836
:1032400079D13E480078E0B13C484078C8B93B4865
:10325000C078022803D03948C078042805D101205D
:1032600037490870032037490870012033494870F6
:1032700000203A490870012031490870314908702E
:10328000C2E02E48007800287CD02C4840780028E6
:1032900078D00020294948700846C078E0B901205C
:1032A00027490870274908702EA2122100200BF030
:1032B00067F809F091FF4EF660200AF05DFB4EF6CC
:1032C00060200AF059FB012029490870294A12217F
:1032D00000200BF055F85BE01848C078012814D1A5
:1032E00025A212210BF04CF8012015490870154950
:1032F000087009F09FFF41F270700AF03DFB1D4A13
:10330000122101200BF03CF842E00C48C07805285F
:1033100039D10F4D00240BE015F8011B04F1C80052
:103320000AF04AFA0A48005D08490855601CC4B210
:10333000062CF1DB2CE038E09014002083130020F1
:103340004600002045000020EB1900203213002029
:103350002C1300208113002082130020D819002094
:103360007C130020D4CBD0D0D6D02E2E2E0000003F
:10337000781300203C060008D4CBD0D0D6D02E2E17
:103380002E2E00000AE0FB48C17803200AF014FA50
:103390000120F9490870F949087035E00120F64923
:1033A00008700320F54908702EE0F54800780F28D2
:1033B00021D1F4484078B8B1F248C078052813D13B
:1033C000F1480078052806DAEF480078401CC0B2C2
:1033D000ED49087000E00020EB4908700120E64943
:1033E0000870E64908700FE00120E34908700320E7
:1033F000E249087008E0E248007828B10120DE497F
:1034000008700320DD4908700020DD49087070BD98
:10341000DB4800780C2817D1DA48007828B1022060
:10342000DA490870DA49087004E00120D7490870C9
:10343000D74908700020D3498870C8700120CE4950
:103440000870CE4908704DE0CD4800780E2816D19E
:10345000CC48C078401ECB49C8700846C078CD49DA
:103460000978884202DCC748C07810B90020C549F5
:10347000C8700120C0490870C049087032E0C048D7
:103480000078032814D1BF48C078401CBD49C870DB
:103490000846C078BF490978884203DDBD480078F6
:1034A000B849C8700120B4490870B449087019E0DF
:1034B000B3480078072815D10420B4490870B449EE
:1034C0000870B048C078AF4908710846C078401C01
:1034D00088700020C8700120AF490870A6490870A4
:1034E000A64908700020A6490870704770B50220F0
:1034F000A7490870A24800780C280ED10120A349E2
:103500000870A34908709F4988700020C870012086
:103510009949087099490870E6E0994800780E28A2
:1035200022D1994800789D49085C092809DA964813
:103530000078085C401CC0B293490978974A5054FF
:1035400000E0002090490978944A50548E48007851
:103550001146095C8C480278401D8154012086493F
:10356000087086490870BFE085480078032822D19A
:10357000854800788949085C002809DD8248007880
:10358000085C401EC0B280490978844A505400E06B
:1035900009207D490978814A50547B4800781146BA
:1035A000095C79480278401D8154012072490870F5
:1035B0007249087098E07248007807287DD17748F2
:1035C000007877490978884230D174484078744946
:1035D000497888422AD1714880787149897888422F
:1035E00024D16E48C0786E49C97888421ED16B4894
:1035F00000796B490979884218D16848407968494F
:103600004979884212D101205E49087003205F4940
:1036100008705F49087001205A4988700020C870FE
:10362000012055490870554908705DE05B480078F5
:1036300006283BD159484078B0BB584880780328C9
:1036400034D15648C07878BB5448007909282DD128
:103650005248407940BB002411E0514D02204F49AF
:1036600008552946085502214748401D015515F8BF
:10367000011B04F1C8000AF09FF8601CC4B2062CBC
:10368000EBDB01203F4908700320404908704049A6
:10369000087001203B4988700020C870012036491D
:1036A0000870364908701FE000E006E0012032494A
:1036B000087003203149087016E0314800780F285F
:1036C00012D131480078052806DA2F480078401CCE
:1036D000C0B22D49087000E000202B49087001207D
:1036E000254908702549087070BD254909780C29BD
:1036F0000FD10021254A1170254A1170FF21214A5E
:1037000091700021D17001211B4A11701B4A117068
:1037100084E01B4909780E2914D11A49C978491E39
:10372000184AD1701146C9781A4A1278914203DDBD
:1037300018490978134AD17001210F4A11700F4AB4
:1037400011706BE00E49097803292BD10D49C97816
:10375000491C0C4AD1701146C9780E4A1278914220
:1037600002DD0021074AD1700121034A1170034A8A
:10377000117053E0E31900204600002045000020AE
:103780009014002083130020D819002081130020FA
:10379000821300207C130020781300202C130020BB
:1037A00032130020FE49097807292ED1FD49C97836
:1037B000012917D1FB4A11700221FB4A1170FB4A03
:1037C0001170002003E00021F94A1154401C062822
:1037D000F9DB002003E00022F6490A54401C0628C9
:1037E000F9DB07E00021EF4A11700321EE4A117066
:1037F000EE4A11700121EB4A91700021D170012134
:10380000ED4A1170ED4A117008E0E549097829B1D7
:103810000121E94A11700321E84A11707047E84814
:10382000007820F00400E64908700020E54908709F
:10383000E5490870E5490870E5490870E5490870F0
:10384000E5480078E5490978884204D00020E2493B
:103850000870E24908700120E14908600020E14950
:10386000C1F8A801704710B5CD4800780C282BD1BD
:103870000120DD490870DD480078F0B9DC480078A7
:10388000D8B9CF480078C0F38000B0B90520C64948
:103890000870C64908700020C2498870C8700120AD
:1038A000D44908700020C349491FC8700120C2498B
:1038B0000870C249087001F0F7BD0120BE490870C8
:1038C0000320BE490870F6E7B54800780E2842D1BB
:1038D000C9480078012804D1C8480088401CC7495D
:1038E0000880C24800780028E5D1C1480078002847
:1038F000E1D1B3480078C0F380000028DBD1C04894
:103900000078C0F340100028D5D1BE4800780528C3
:1039100005DABC480078401CBA49087002E0012072
:10392000B849087000240EE0B6490978491E4FF4E2
:10393000807202EB0121214488B209F013FFB249E1
:103940000855601CC4B2C82CEEDB01209A490870EF
:103950009A490870AFE792480078032832D1A64808
:103960000078012804D1A5480088401EA34908809A
:103970009E48007800289ED19D48007800289AD162
:103980008F480078C0F38000002894D19C480078CC
:10399000C0F3401000288ED1062083490870834967
:1039A000087000207F498870C8709849087098494D
:1039B00008708049491FC87001207F4908707F49FD
:1039C000087078E776480078072822D18748007881
:1039D0000028BFD1864800780028BBD178480078FD
:1039E000C0F380000028B5D185480078C0F34010AE
:1039F0000028AFD101206C4908706C4908706949F2
:103A000088700020C87001206B4908706B490870ED
:103A100051E763480078102850D17448007878B98D
:103A20007348007860B966480078C0F3800038B900
:103A300073480078C0F3401010B97648007830B968
:103A400001205D49087003205C49087033E70120BC
:103A500066490870704908707048007820F00100CD
:103A6000401C6E4908705648007820F08000803075
:103A70005349087000205A49086001205949C1F88B
:103A8000A8016748007840B16648007820F001003E
:103A9000644908700020644908706448007820F088
:103AA00040006249087000206149087001204249C5
:103AB00008704249087050490870FCE638480078A0
:103AC0000B286BD14948007890B94948007878B9FB
:103AD0003B480078C0F3800050B94E48007838B1B8
:103AE0005448007820B101203349087033490870E8
:103AF0003E48007838B93E48007820B93048007810
:103B0000C0F3800038B14348007820B13C480078C9
:103B1000C0F3401030B10120274908700320274925
:103B20000870C8E6002032490870304908703F48E4
:103B3000007820F001003D4908702148007820F00D
:103B400004001F49087000201E4908701E490870B3
:103B50001E4908701E4908701E4908700120364928
:103B600008603648007820F0010034490870344875
:103B7000007820F00800324908702148007820F0D1
:103B800080001F4908702D48007820F002002B4962
:103B90000870002010490870104953E07FE10000D0
:103BA0009014002083130020811300208213002032
:103BB0002C130020DD1900204600002045000020C5
:103BC000530000204A0000204B0000204C00002041
:103BD0004D0000204E000020021800200318002095
:103BE00084812142008021429B130020010000209B
:103BF000000000207813002079130020D614002044
:103C000057000020981300203C1800207A13002051
:103C10007B130020E61400200C1800205800002020
:103C2000E71400205A0000203A000020590000202C
:103C30002100002023000020B00122425400002077
:103C4000560000200870FE490870FE490870FE49C1
:103C50000870FE480078C0F3001058B11420FC49E9
:103C60000870FC490870FC48007820F00200801CB5
:103C7000F9490870F548007820F01000F349087001
:103C8000F548007820F00400F3490870EF48007808
:103C900020F00800ED490870EF48007820F0080097
:103CA000ED4908700020E8490870EC490870EC48BC
:103CB000007820F00400EA4908700846007820F0F7
:103CC000080008700020E74908700120E6490860F4
:103CD0000020E6490870E248007820F01000E04932
:103CE00008700020E24908700120E249C1F8B001E3
:103CF0000020E1490870DA48007820F04000D849F7
:103D000008700846007820F0200008700020DB4989
:103D100008700120D749C1F8AC01CF48007820F0E5
:103D20001000CD4908700846007820F02000087087
:103D30000846007820F0400008700120D049086053
:103D40000020D0490870D0490870D0490870D04888
:103D5000007820F02000CE4908700020CD4908707E
:103D6000CD4908700120CD49C1F89801C8480078B4
:103D700020F04000C6490870B748007820F0800065
:103D8000B54908700020C6490870C148007820F085
:103D90008000BF490870C348007820F00800C1497E
:103DA00008700120BD49C1F89C01BF4800785A281D
:103DB00018D1BE480078A8B9BD48007890B9BD4870
:103DC00090F84800B9490870BA4890F84A00401D78
:103DD000B7490870B348007820F040004030B1493E
:103DE00008701BE0B0480078472817D1B248007827
:103DF000A0B9B248007888B9AE4890F84900AE49F9
:103E00000870AC4890F84B00401DAC490870A548BC
:103E1000007820F040004030A2490870A2480078A5
:103E2000A0B9A248007888B9A148007870B9A24822
:103E3000007858B9A148007840B98548007828B979
:103E40008448007810B900209D49087000209649E8
:103E500008709448007820F0800092490870084665
:103E6000007820F00400087001207F4910390860B4
:103E700000209449C1F8A801934908700120934992
:103E8000087093490870002092490870894890F89A
:103E900071009149087000209049C8700BE5904866
:103EA00000780A286AD18F480078002867D07848BF
:103EB0000078C009002862D175480078C0F38010EE
:103EC0000028F8D161480078C0F380000028F2D1C2
:103ED00085480078C0F340100028ECD18348007872
:103EE0000028E3D05C48007800F001000028E2D10F
:103EF0007F480078C0F3400000283DD15848007842
:103F000000F00100C8BB51480078C0F3C000A0BB5E
:103F10005348007820F00100401C51490870754852
:103F2000007820F00800734908706F48007820F08E
:103F300080006D4908704A48007820F00200801C1B
:103F40004749087001206C4908706948007820F0E2
:103F50000400674908703D48007820F008003B499C
:103F600008703D48007820F004003B49087008467E
:103F7000007820F008000870DDE001E09CE1E0E05E
:103F80003748007800F00100C8B330480078C0F32B
:103F9000C000A0BB3248007820F001003049087012
:103FA0005448007820F00800524908704E480078C4
:103FB00020F080004C4908702948007820F0020069
:103FC000274908702148007820F0080008301F4970
:103FD00008702148007820F00400001D1E49087078
:103FE0000846007820F00800087001204249087057
:103FF0003F48007820F004003D4908709BE0FFE74F
:104000001748007820F001001549087039480078F9
:1040100020F00800374908703348007820F080000D
:10402000314908700E48007820F002000C490870F1
:10403000002032490870324908700149087061E077
:104040001500002016000020A013002053000020BF
:104050002800002029000020590000200718002017
:1040600054000020A1130020948121420818002050
:104070009C13002000002142091800209D130020FD
:10408000A001214206180020051800200418002075
:10409000550000201A0000200A18002000002242CB
:1040A0009E130020580000201B0000203400002038
:1040B00036000020E31900203500002037000020E2
:1040C0000C180020008021429F1300204600002091
:1040D000450000207913002010000020D81900208E
:1040E000901400200100002057000020E61400205A
:1040F0005A0000205600002038000020021800203E
:1041000003180020FE490870FE48007820F00800DF
:10411000FC490870FC48007820F00400FA49087057
:104120000846007820F008000870F648007820F073
:104130001000F44908700120F4490870F44908702F
:10414000B6E0F448007800287ED1F3480078C00932
:10415000002879D1F0480078C0F38010002873D18E
:10416000E8480078C0F3800000286DD1EB48007863
:10417000C0F34010002867D1E9480078002863D0D8
:10418000E0480078C0F3C00000285DD1E548007821
:1041900088BB0120E34908700020E3490870E34927
:1041A0000870E34908600120E249C1F8A801D54838
:1041B000007820F080008030D2490870DE4890F806
:1041C0007100DE4908700120DD490870DD48007883
:1041D00040B1DD48007820F00100DB490870002084
:1041E000DA490870C848007820F04000C6490870D5
:1041F0000020D7490870D748007800F0010020BBA4
:10420000D448007820F00100401CD2490870D24800
:10421000007820F00800D0490870C048007820F0ED
:104220008000BE490870CB48007820F00200801C56
:10423000C84908700120C9490870C348007820F0B7
:104240000400C149087027E02CE0C248007820F043
:104250000100C0490870C048007820F00800BE493D
:104260000870AE48007820F08000AC490870B9486A
:10427000007820F00200B7490870A248007820F0CA
:104280000800A04908700020B5490870B5490870B9
:10429000B54908709A49087001209C4908709C49EA
:1042A000087005E0012099490870032098490870BA
:1042B0000020AE49C87034E4AD48007804287DD1B0
:1042C00094480078D0B394480078C009B0BB9248B5
:1042D0000078C0F3801088BB8A480078C0F3800063
:1042E00060BB8E480078C0F3401038BB8C48007823
:1042F00020B38548007800F00100F8B992480078B2
:10430000C0F34000A8BB9B4800888C4909788842CC
:1043100015DA904800786FEA90008E49097860F3CA
:1043200082018C4801700078C0F3800008B389488E
:10433000007820F00800874908701AE01FE08548DF
:1043400000786FEA90008349097860F38201814820
:1043500001700078C0F3800028B17E48007820F01A
:1043600008007C49087001206849087003206849EA
:1043700008700120654908706549087097E0654834
:104380000078E8BB64480078C009C8BB6248007880
:10439000C0F38010A0BB5B480078C0F3800078BBFE
:1043A0005E480078C0F3401050BB5D48007838B3D9
:1043B00054480078C0F3C00010BB00E07BE05948CF
:1043C000007898BB012057490870002056490870B2
:1043D000564908705649086001205649C1F8A8019D
:1043E0004848007820F080008030464908705248E4
:1043F00090F871005149087001205149087000E09F
:104400004FE05048007840B14F48007820F001005C
:104410004D49087000204D4908703B48007820F055
:104420004000394908700020494908705148008807
:1044300042490978884214DA464800786FEA9000C9
:104440004449097860F38201424801700078C0F362
:10445000800000B33F48007820F008003D49087014
:1044600019E03C4800786FEA90003A49097860F317
:104470008201384801700078C0F3800028B13548C7
:10448000007820F008003349087001201F490870A7
:1044900003201F49087001201C4908701C4908703E
:1044A00005E001201949087003201949087000200F
:1044B0002E49C870F2E42E48007808287CD11548AF
:1044C0000078D8B114480078C009B8B9124800780B
:1044D000C0F3801090B90B480078C0F3800068B931
:1044E0000E480078C0F3401040B90D48007828B15C
:1044F0000548007800F0010000B93DE07DE00000D3
:104500001600002053000020590000204600002023
:104510004500002001000020550000205700002029
:10452000E6140020000000201800002019000020E0
:104530008481214200802142E319002010000020E4
:104540000C180020E71400205A0000203A00002038
:1045500021000020540000205600002038000020D8
:10456000021800200318002015000020D819002090
:1045700090140020D6140020FD480078C0F34000BD
:10458000A8BBFC480088FC490978884215DAFB483A
:1045900000786FEA1010F949097860F30411F748C0
:1045A00001700078C0F3001008B3F448007820F0E0
:1045B0002000F24908701AE0B9E0F04800786FEA8C
:1045C0001010EE49097860F30411EC48017000788E
:1045D000C0F3001028B1E948007820F02000E74936
:1045E00008700120E64908700320E64908700120A0
:1045F000E3490870E349087095E0E3480078E8BBB8
:10460000E2480078C009C8BBE0480078C0F38010D9
:10461000A0BBDF480078C0F3800078BBDD4800789D
:10462000C0F3401050BBDC48007838B3D84800785D
:10463000C0F3C00010BBD948007898BB0120D7490F
:1046400008700020D6490870D6490870D64908601D
:104650000120D649C1F8A801CD48007820F080009B
:104660008030CB490870D24890F87100C249087078
:104670000120D0490870D048007800E04DE040B1FA
:10468000BB48007820F00100B94908700020CB49F0
:104690000870CB48007820F04000C949087000201D
:1046A000C8490870B3480088B3490978884214DAC9
:1046B000B24800786FEA1010B049097860F304112D
:1046C000AE4801700078C0F3001000B3AB4800782A
:1046D00020F02000A949087019E0A84800786FEA86
:1046E0001010A649097860F30411A44801700078FD
:1046F000C0F3001028B1A148007820F020009F49A5
:10470000087001209E49087003209E49087001200E
:104710009B4908709B49087005E001209849087082
:104720000320984908700020A749C870C3E5A7482E
:1047300000780D2875D19448007878B393480078B4
:10474000C00958BB91480078C0F3801030BB904836
:104750000078C0F3800008BB8E480078C0F340109A
:10476000E0B98D480078C8B19548007800F00100A4
:10477000A0B97F480078C0F3400048B97F4800786E
:104780006FEA90107D49097860F386117B480170CB
:1047900001207B4908707B49087067E0FFE77A4891
:1047A0000078E8BB79480078C009C8BB7748007832
:1047B000C0F38010A0BB76480078C0F3800078BBBF
:1047C00074480078C0F3401050BB7348007838B389
:1047D0006F480078C0F3C00010BB7048007878BB09
:1047E00001206E49087000206D4908706D490870FD
:1047F0006D49086001206D49C1F8A801644800783E
:1048000020F08000803062490870012069490870FA
:104810006948007858B15648007820F0010001E05E
:104820001EE027E05249087000206449087064487F
:10483000007820F04000624908700020614908704B
:104840004E4800786FEA90104C49097860F3861161
:104850004A48017001204A4908704A49087005E039
:104860000120474908700320464908700020564936
:10487000C87020E555480078012877D14348007872
:10488000C00900284AD141480078C0F380100028B0
:1048900044D13F480078C0F3800000283ED13D4815
:1048A0000078C0F34010C8BB3B480078B0B3444820
:1048B000007800F0010088BB35480078C0F3C000E4
:1048C00060BB3148007850B329480078C0F34000FD
:1048D00018BB3F48007800B33948007820F010003A
:1048E000374908700846007820F020000870084614
:1048F000007820F0400008702448007820F0200064
:10490000224908700020334908702E4908700120A0
:104910001B49087003201B49087086E0C1E0FFE7CF
:104920001E48007818BB01201C49087000201C4953
:1049300008701C4908701C49086001201B49C1F817
:10494000A8011348007820F08000803010490870DA
:1049500001201849087018480078E8B30448007826
:1049600020F0010002490870002036E0A3E05CE07E
:104970005A000020D614002010000020540000200F
:1049800046000020450000200100002055000020C6
:104990005300002057000020E614002000000020F3
:1049A000180000201900002084812142008021424B
:1049B000E31900200C180020E71400203A00002022
:1049C0005900002021000020D81900209014002058
:1049D0000A1800201A00002001E0FE490870FE4875
:1049E0000078C0F3C00000B3FC48007820F010004D
:1049F000FA4908700846007820F020000870084640
:104A0000007820F040000870F548007820F0200081
:104A1000F34908700020F3490870F3490870012039
:104A2000F24908700320F2490870EC480078C0F39E
:104A3000401020B1E9480078C0F38010C0B9E748C1
:104A400000786FEA1010E549097860F30411E34833
:104A500001700078C0F3001030B1E64890F83100E2
:104A6000401CE149087016E00020DF49087012E0A0
:104A7000DA48007820F01000D8490870084600781D
:104A800020F0200008700846007820F040000870F0
:104A90000020D54908700120D4490870D449087015
:104AA00005E00120D14908700320D1490870002099
:104AB000D149C870FEE4D148007805287DD1D0489E
:104AC0000078E8B3C6480078C009C8BBC24800787F
:104AD000C0F38000A0BBCB480078C0F3401078BB87
:104AE000C948007860B3BD48007800F0010038BBC9
:104AF000C6480078C0F3400048B9B84800786FEA6B
:104B0000D010B649097860F3C711B4480170B348B2
:104B10000078C00990B3B248007820F040004030DF
:104B2000AF490870BA48007820F00400B84908700E
:104B30000846007820F0100008700846007800E071
:104B400029E020F040000870A548007820F02000FF
:104B5000A3490870A148007820F010009F49087010
:104B60000846007820F0200008700846007820F001
:104B70004000087000209C49087006E0FFE7984854
:104B8000007820F04000964908700120974908708D
:104B9000974908707CE19A480078002874D19048C1
:104BA0000078C0090028F9D18B480078C0F3800054
:104BB000002869D19348007800E06DE1C0F340100F
:104BC000002861D19048007800285DD09148007895
:104BD00018BB01208F49087000208F4908708F4949
:104BE00008708F49086001208E49C1F8A8017A48F1
:104BF000007820F0800080307749087001208A49D1
:104C000008708A48007840B18048007820F00100A0
:104C10007E49087000206F49087071480078C0F321
:104C2000801090B38248007878BB8248007860BBDF
:104C30008148007848BB8148007830BB68480078DC
:104C400020F040006649087000207D4908706348E4
:104C5000007820F08000614908705F48007820F0FB
:104C600008005D4908700846007820F010000870C0
:104C70005A48007820F00400584908700846007827
:104C800020F008000870F7E0FCE0FFE752480078E9
:104C90006FEAD0005049097860F3C3014E480170B3
:104CA0000078C0F3C000E8B3002065490870584898
:104CB000007820F00400564908700846007820F07B
:104CC000100008700846007820F040000870444842
:104CD000007820F02000424908704048007820F019
:104CE00010003E4908700846007820F02000087047
:104CF0000846007820F04000087000203A4908700B
:104D00003548007820F010003349087033480078A7
:104D100020F00400314908700846007820F00800AF
:104D2000087000E034E03948007820F0040037498A
:104D300008700120434908702E4890F842003E490F
:104D400008702C4890F843003C49087030480078BF
:104D500020F001002E4908703B48007820F0080040
:104D6000394908702748007820F0800025490870EC
:104D70002748007820F002002549087000202C49BF
:104D800008702C490870314908703149087073E087
:104D90001348007820F04000114908700F4800784F
:104DA00020F004000D4908700846007820F0080043
:104DB000087009480078C0F3001048B11420254954
:104DC0000870254908700548007820F0020045E089
:104DD00047E000003A000020530000205900002066
:104DE000550000201A00002021000020460000206D
:104DF00045000020E3190020D8190020901400205D
:104E00000100002057000020E61400205A00002076
:104E1000540000200000002018000020190000208D
:104E200084812142008021420C180020E7140020D8
:104E30000218002003180020260000202700002070
:104E40000A1800203800002056000020150000201D
:104E5000160000202800002029000020801CFE49A8
:104E60000870FE48007820F01000FC49087000200F
:104E7000FB490870FB4908700120FB490870FB4999
:104E8000087005E00120F84908700320F749087010
:104E90000020F749C87007E3F648007809287DD15B
:104EA000F548007800287AD0EC480078C0F38000FC
:104EB000002874D1F1480078C0F3401000286ED16A
:104EC000EF48007800286AD0E348007800F001003D
:104ED000002864D1EB480078C0F34000F0BBDF4805
:104EE0000078C0F3001058B1DB48007820F00200D1
:104EF000801CD94908700020D9490870D949087028
:104F0000D648007820F01000D4490870D2480078C4
:104F100020F00400D0490870D048007820F0080044
:104F2000CE490870CC48007820F00800CA490870C3
:104F3000D5480078A0BB0846007820F0800080307B
:104F40000870D248007820F080008030CF49087087
:104F50005A20CD490870CE48007800E087E020F064
:104F60008000CB490870CB4890F84000CA490870CF
:104F7000C84890F84500C0EB00108000C7490860A1
:104F8000C44890F844001E30C54908700120C54946
:104F90000870BC48007820F0040002E07BE2C2E028
:104FA00002E0B849087062E0B74800785A2828D172
:104FB000A948007820F080008030A7490870B348E5
:104FC000007820F080008030B04908704720AE495A
:104FD0000870AF48007820F00400AD490870AD4873
:104FE00090F84600C0EB00108000AF490860012037
:104FF000AC490870A348007820F00400A14908706B
:1050000035E000209649087096490870A749086065
:10501000A7490860A74908609E4890F84900A6493A
:1050200008709C4890F84B00401DA44908709848AF
:10503000007820F04000403095490870084600781C
:1050400020F0800008700846007820F00400087006
:105050008148007820F080007F4908708B480078F4
:1050600020F080008949087000208749087087482F
:105070000078C009F0B39248007820F00100904910
:1050800008709048007820F008008E4908707B482E
:10509000007820F08000794908708948007820F075
:1050A0000200874908700846007820F00400087064
:1050B0000846007820F0100008700846007820F0BC
:1050C000400008706448007820F0100062490870C1
:1050D0000846007820F0200008700846007820F08C
:1050E000400008700020784908706848007820F077
:1050F000200000E011E06549087000207349087045
:105100006248007820F040006049087052480078FA
:1051100020F080008030504908700120524908700A
:1051200052490870B3E154480078002879D14B48BF
:105130000078C0F380000028F8D150480078C0F310
:1051400040100028F2D14E480078002869D060480D
:10515000007818BB01205E49087000205D49087086
:105160005D4908705D49086001205D49C1F8A801EA
:105170003A48007820F080008030384908700120DB
:10518000584908705848007840B13E48007820F0EF
:1051900001003C4908700020544908703A480078E2
:1051A000F0BB2D48007820F0800080302A4908703C
:1051B0003648007820F080008030344908705A204A
:1051C000314908703248007820F08000304908707A
:1051D000304890F84000304908702E4890F845005B
:1051E000C0EB001080002D4908602A4890F8440068
:1051F0001E302B49087001202A4908702148007888
:1052000020F004001F49087014480078C0F3001013
:1052100000B31148007820F00200801C0E4901E024
:1052200007E02EE1087000200D4908700D49087054
:10523000B2E0154800785A2878D10748007820F065
:1052400080008030044908701048007820F0800009
:1052500080304DE0A0E00000590000205300002005
:1052600002180020031800204600002045000020FE
:10527000D8190020901400200100002057000020C1
:10528000E61400205A0000201B00002055000020DA
:1052900058000020E31900202A0000202C000020E4
:1052A0002B000020380000203000002004000020E7
:1052B000080000200C0000203500002037000020EE
:1052C0005400002056000020210000201A00002079
:1052D00000000020180000201900002084812142D5
:1052E000008021420C180020E71400203A00002022
:1052F000F84908704720F8490870F848007820F00D
:105300000400F6490870F64890F84600C0EB00101B
:105310008000F44908600120F3490870F3480078E0
:1053200020F00400F149087036E0FFE70020F04962
:105330000870F0490870F0490860F0490860F049C9
:105340000860E74890F84900EE490870E44890F892
:105350004B00401DEC490870E048007820F0400008
:105360004030DE4908700846007820F08000087060
:105370000846007820F004000870E448007820F027
:105380008000E2490870D348007820F08000D149BD
:1053900008700020D0490870CE480078C009E0B3FA
:1053A000DB48007820F00100D9490870D94800781E
:1053B00020F00800D7490870D748007820F0800016
:1053C000D5490870D248007820F00200D049087012
:1053D0000846007820F0040008700846007820F0A5
:1053E000100008700846007820F040000870C74898
:1053F000007820F01000C54908700846007820F0B9
:10540000200008700846007820F040000870002056
:10541000C2490870AF48007800E02CE020F020007E
:10542000AC4908700020BE490870AA48007820F0F6
:105430004000A8490870B548007820F0800080300E
:10544000B24908700120B7490870B748007820F0C9
:105450000800B54908700846007820F01000087070
:10546000AA48007820F00400A8490870084600788F
:1054700020F0080008700120AC490870AC490870A1
:1054800005E00120A94908700320A94908700020FF
:10549000A849C87008E0A84800780F2804D1012066
:1054A000A6490870FEF7BBF910BD10B5A4480078F6
:1054B0000B2871D2DFE800F0060C12181E61677A23
:1054C00080868C0000209F490870FEF7CCF986E0AA
:1054D00001209C490870FEF708F980E002209949F4
:1054E0000870FEF703F87AE0032096490870FDF78C
:1054F0008FFF74E004209349087093488078102847
:1055000036D2DFE800F035080B0E1114171A1D20F3
:105510002326292C2F32FDF76DFD2CE0FDF742FCF0
:1055200029E0FDF7D5FA26E0FDF77CFA23E0FDF748
:1055300023FA20E0FDF712F91DE0FDF714F81AE058
:10554000FCF7FBFE17E0FCF744FD14E0FCF7EFFB73
:1055500011E0FCF7E5FA0EE0FCF7FEF90BE0FCF7D2
:1055600094F808E0FBF76DFE05E0FBF778FD02E03C
:10557000FBF753FD00BF00BF31E005207149087003
:10558000FBF7E6FC2BE006206E4908706E48807839
:1055900018B1012807D103E020E0FAF73CFF03E04F
:1055A000FAF7DAFE00E000BF00BF18E00720654907
:1055B0000870FAF7B9FE12E0082062490870FAF79D
:1055C0009FFE0CE009205F490870FAF785FE06E0AF
:1055D0000A205C490870FAF71DFE00E000BF00BF1A
:1055E00000205549087010BD10B55848007810B11A
:1055F0000020564908704F48C07870B9544A0021BD
:105600000846FAF7F0FD534A0021084608F0B8FEB4
:105610004848C078401C4749C87010BD70B5034663
:1056200000200DE00A25B1FBF5F605FB161404F188
:105630003005ECB21C540A25B1FBF5F1451CE8B26B
:105640009042EFDB70BD2DE9F041054688461646D5
:10565000324641462846FFF7E1FF00240BE02F5D6C
:10566000A819401E001B00782855A819401E001BD1
:105670000770601CC4B206EBD671B4EB610FEEDBB1
:10568000BDE8F0811CB53148007810B100202F49E9
:1056900008703148007828B130A20021084608F08F
:1056A0006FFE7CE02F480078012806D002280AD03F
:1056B000032861D004286BD164E02BA200210846A6
:1056C00008F05EFE6AE02AA20021084608F058FEB3
:1056D00064E051E0550000201B000020580000202D
:1056E000E319002030000020380000205A0000207C
:1056F00002180020031800200400002008000020E9
:105700000C00002035000020370000205900002048
:1057100054000020560000205700002021000020E7
:105720001A0000200A180020530000204600002024
:1057300045000020D8190020901400209413002068
:10574000811300208213002083130020781300208F
:105750004C0200202021002000000020CAD6B6AF55
:105760000000000098130020B1EAD7BC0000000040
:10577000B4B2B5A500000000FCA20021084608F064
:10578000FFFD0BE0FBA20021084608F0F9FD05E053
:10579000FAA20021084608F0F3FD00BF00BFF94857
:1057A000C07870B9F84A00210846FAF71CFDF74A9C
:1057B0000021084608F0E4FDF248C078401CF14999
:1057C000C870F3480068012808D1F2A21C2100200B
:1057D00008F0D6FD0020F049086007E0EFA21C2188
:1057E000002008F0CDFD0120EB490860EC4800786E
:1057F000002868D1EB4800780028FAD1EAA20321FA
:10580000084608F0BDFDEAA20A21032008F0B8FD11
:10581000E9A21021032008F0B3FDE9A2172103201B
:1058200008F0AEFDE848007828B9E8A21C21012064
:1058300008F0A6FD04E0E6A21C21012008F0A0FD6E
:10584000E4480078F0B3D7480078D8BB0020E1499D
:105850000870E148007864280CDDDF48007864387F
:10586000DD49087008460078642803DD08460078A2
:10587000643808700322D84801786846FFF7E3FED1
:105880009DF80000302802D120208DF800009DF8FE
:105890000100302802D120208DF8010003236A4640
:1058A0000821022008F06BFE0422CC4801886846DB
:1058B000FFF7C9FE9DF80000302802D120208DF8A6
:1058C000000001E006E0BAE004236A461721022046
:1058D00008F055FEB2480078B0B1B248007898B9E7
:1058E0000222BF4801786846FFF7ADFE9DF8000030
:1058F000302802D120208DF8000002236A461721AB
:10590000012008F03CFE13E0B64890F87110022226
:105910006846FFF798FE9DF80000302802D120204D
:105920008DF8000002236A461721012008F027FEA7
:105930009B48007848B19B48007830B90322AA48B8
:1059400001786846FFF77FFE0BE0A64890F85810F4
:1059500003226846FFF777FEA24890F85800A24954
:1059600008709DF80000302802D120208DF800003A
:105970009DF80100302802D120208DF8010003237A
:105980006A460821012008F0FAFD9848007820F0C6
:105990000200801C954908708B48007828B994A2B1
:1059A0000C21002008F0ECFC49E09448007870B924
:1059B0009348007858B99348007840B992480078E5
:1059C00028B99248007810B99148007850B18748BA
:1059D0000078C0F3800028B98EA20C21002008F0C6
:1059E000CFFC2CE085480078C8B985480078B0B96C
:1059F0008448007898B98448007880B98348007852
:105A000068B98348007850B978480078C0F38000BE
:105A100028B983A20C21002008F0B2FC0FE07348E3
:105A20000078C0F3800028B180A20C21002008F08B
:105A3000A7FC04E080A20C21002008F0A1FC1CBD02
:105A40007047704710B57F48007810B100207D493D
:105A500008704C48C07870B97B4A00210846FAF7B4
:105A6000C2FB4A4A0021084608F08AFC4548C07833
:105A7000401C4449C87010BD10B57248007810B180
:105A80000020704908703F48C07870B96F4A002103
:105A90000846FAF7A8FB3D4A0021084608F070FCCA
:105AA0003848C078401C3749C870012068490870E0
:105AB00010BD70B504460D46012C1BD165A2032113
:105AC000084608F05DFC65A20A21032008F058FC96
:105AD00064A21021032008F053FC2DB163A217210A
